{
  "_format": "hh-sol-artifact-1",
  "contractName": "TheVoidUnsafe",
  "sourceName": "contracts/TheVoidUnsafe.sol",
  "abi": [
    {
      "inputs": [],
      "stateMutability": "nonpayable",
      "type": "constructor"
    },
    {
      "anonymous": false,
      "inputs": [
        {
          "indexed": true,
          "internalType": "address",
          "name": "owner",
          "type": "address"
        },
        {
          "indexed": true,
          "internalType": "address",
          "name": "spender",
          "type": "address"
        },
        {
          "indexed": false,
          "internalType": "uint256",
          "name": "value",
          "type": "uint256"
        }
      ],
      "name": "Approval",
      "type": "event"
    },
    {
      "anonymous": false,
      "inputs": [
        {
          "indexed": false,
          "internalType": "bytes32",
          "name": "_queryId",
          "type": "bytes32"
        },
        {
          "indexed": false,
          "internalType": "uint256",
          "name": "_time",
          "type": "uint256"
        },
        {
          "indexed": false,
          "internalType": "bytes",
          "name": "_value",
          "type": "bytes"
        },
        {
          "indexed": false,
          "internalType": "uint256",
          "name": "_nonce",
          "type": "uint256"
        },
        {
          "indexed": false,
          "internalType": "bytes",
          "name": "_queryData",
          "type": "bytes"
        },
        {
          "indexed": false,
          "internalType": "address",
          "name": "_shouter",
          "type": "address"
        }
      ],
      "name": "NewShout",
      "type": "event"
    },
    {
      "anonymous": false,
      "inputs": [
        {
          "indexed": false,
          "internalType": "address",
          "name": "_shouter",
          "type": "address"
        },
        {
          "indexed": false,
          "internalType": "uint256",
          "name": "_amount",
          "type": "uint256"
        }
      ],
      "name": "NewShouter",
      "type": "event"
    },
    {
      "anonymous": false,
      "inputs": [
        {
          "indexed": false,
          "internalType": "address",
          "name": "_shouter",
          "type": "address"
        },
        {
          "indexed": false,
          "internalType": "uint256",
          "name": "_amount",
          "type": "uint256"
        }
      ],
      "name": "StakeWithdrawRequested",
      "type": "event"
    },
    {
      "anonymous": false,
      "inputs": [
        {
          "indexed": false,
          "internalType": "address",
          "name": "_shouter",
          "type": "address"
        }
      ],
      "name": "StakeWithdrawn",
      "type": "event"
    },
    {
      "anonymous": false,
      "inputs": [
        {
          "indexed": true,
          "internalType": "address",
          "name": "from",
          "type": "address"
        },
        {
          "indexed": true,
          "internalType": "address",
          "name": "to",
          "type": "address"
        },
        {
          "indexed": false,
          "internalType": "uint256",
          "name": "value",
          "type": "uint256"
        }
      ],
      "name": "Transfer",
      "type": "event"
    },
    {
      "inputs": [
        {
          "internalType": "uint256",
          "name": "_amount",
          "type": "uint256"
        }
      ],
      "name": "addStakingRewards",
      "outputs": [],
      "stateMutability": "nonpayable",
      "type": "function"
    },
    {
      "inputs": [
        {
          "internalType": "address",
          "name": "_owner",
          "type": "address"
        },
        {
          "internalType": "address",
          "name": "_spender",
          "type": "address"
        }
      ],
      "name": "allowance",
      "outputs": [
        {
          "internalType": "uint256",
          "name": "",
          "type": "uint256"
        }
      ],
      "stateMutability": "view",
      "type": "function"
    },
    {
      "inputs": [
        {
          "internalType": "address",
          "name": "_spender",
          "type": "address"
        },
        {
          "internalType": "uint256",
          "name": "_amount",
          "type": "uint256"
        }
      ],
      "name": "approve",
      "outputs": [
        {
          "internalType": "bool",
          "name": "",
          "type": "bool"
        }
      ],
      "stateMutability": "nonpayable",
      "type": "function"
    },
    {
      "inputs": [
        {
          "internalType": "address",
          "name": "_account",
          "type": "address"
        }
      ],
      "name": "balanceOf",
      "outputs": [
        {
          "internalType": "uint256",
          "name": "",
          "type": "uint256"
        }
      ],
      "stateMutability": "view",
      "type": "function"
    },
    {
      "inputs": [
        {
          "internalType": "bytes32",
          "name": "_queryId",
          "type": "bytes32"
        },
        {
          "internalType": "uint256",
          "name": "_timestamp",
          "type": "uint256"
        }
      ],
      "name": "beginDispute",
      "outputs": [],
      "stateMutability": "nonpayable",
      "type": "function"
    },
    {
      "inputs": [],
      "name": "decimals",
      "outputs": [
        {
          "internalType": "uint8",
          "name": "",
          "type": "uint8"
        }
      ],
      "stateMutability": "view",
      "type": "function"
    },
    {
      "inputs": [
        {
          "internalType": "uint256",
          "name": "_amount",
          "type": "uint256"
        }
      ],
      "name": "depositStake",
      "outputs": [],
      "stateMutability": "nonpayable",
      "type": "function"
    },
    {
      "inputs": [
        {
          "internalType": "address",
          "name": "_user",
          "type": "address"
        }
      ],
      "name": "faucet",
      "outputs": [],
      "stateMutability": "nonpayable",
      "type": "function"
    },
    {
      "inputs": [
        {
          "internalType": "bytes32",
          "name": "_queryId",
          "type": "bytes32"
        },
        {
          "internalType": "uint256",
          "name": "_timestamp",
          "type": "uint256"
        }
      ],
      "name": "getDataBefore",
      "outputs": [
        {
          "internalType": "bool",
          "name": "_ifRetrieve",
          "type": "bool"
        },
        {
          "internalType": "bytes",
          "name": "_value",
          "type": "bytes"
        },
        {
          "internalType": "uint256",
          "name": "_timestampRetrieved",
          "type": "uint256"
        }
      ],
      "stateMutability": "view",
      "type": "function"
    },
    {
      "inputs": [
        {
          "internalType": "bytes32",
          "name": "_queryId",
          "type": "bytes32"
        },
        {
          "internalType": "uint256",
          "name": "_timestamp",
          "type": "uint256"
        }
      ],
      "name": "getIndexForDataBefore",
      "outputs": [
        {
          "internalType": "bool",
          "name": "_found",
          "type": "bool"
        },
        {
          "internalType": "uint256",
          "name": "_index",
          "type": "uint256"
        }
      ],
      "stateMutability": "view",
      "type": "function"
    },
    {
      "inputs": [
        {
          "internalType": "bytes32",
          "name": "_queryId",
          "type": "bytes32"
        }
      ],
      "name": "getNewValueCountbyQueryId",
      "outputs": [
        {
          "internalType": "uint256",
          "name": "",
          "type": "uint256"
        }
      ],
      "stateMutability": "view",
      "type": "function"
    },
    {
      "inputs": [
        {
          "internalType": "bytes32",
          "name": "_queryId",
          "type": "bytes32"
        },
        {
          "internalType": "uint256",
          "name": "_timestamp",
          "type": "uint256"
        }
      ],
      "name": "getShouterByTimestamp",
      "outputs": [
        {
          "internalType": "address",
          "name": "",
          "type": "address"
        }
      ],
      "stateMutability": "view",
      "type": "function"
    },
    {
      "inputs": [
        {
          "internalType": "address",
          "name": "_shoutersAddress",
          "type": "address"
        }
      ],
      "name": "getShouterInfo",
      "outputs": [
        {
          "internalType": "uint256",
          "name": "",
          "type": "uint256"
        },
        {
          "internalType": "uint256",
          "name": "",
          "type": "uint256"
        },
        {
          "internalType": "uint256",
          "name": "",
          "type": "uint256"
        },
        {
          "internalType": "uint256",
          "name": "",
          "type": "uint256"
        },
        {
          "internalType": "uint256",
          "name": "",
          "type": "uint256"
        },
        {
          "internalType": "uint256",
          "name": "",
          "type": "uint256"
        },
        {
          "internalType": "uint256",
          "name": "",
          "type": "uint256"
        },
        {
          "internalType": "uint256",
          "name": "",
          "type": "uint256"
        },
        {
          "internalType": "bool",
          "name": "",
          "type": "bool"
        }
      ],
      "stateMutability": "view",
      "type": "function"
    },
    {
      "inputs": [],
      "name": "getStakeAmount",
      "outputs": [
        {
          "internalType": "uint256",
          "name": "",
          "type": "uint256"
        }
      ],
      "stateMutability": "view",
      "type": "function"
    },
    {
      "inputs": [
        {
          "internalType": "bytes32",
          "name": "_queryId",
          "type": "bytes32"
        },
        {
          "internalType": "uint256",
          "name": "_index",
          "type": "uint256"
        }
      ],
      "name": "getTimestampbyQueryIdandIndex",
      "outputs": [
        {
          "internalType": "uint256",
          "name": "",
          "type": "uint256"
        }
      ],
      "stateMutability": "view",
      "type": "function"
    },
    {
      "inputs": [
        {
          "internalType": "bytes32",
          "name": "_hash",
          "type": "bytes32"
        }
      ],
      "name": "getVoteRounds",
      "outputs": [
        {
          "internalType": "uint256[]",
          "name": "",
          "type": "uint256[]"
        }
      ],
      "stateMutability": "view",
      "type": "function"
    },
    {
      "inputs": [],
      "name": "governance",
      "outputs": [
        {
          "internalType": "address",
          "name": "",
          "type": "address"
        }
      ],
      "stateMutability": "view",
      "type": "function"
    },
    {
      "inputs": [
        {
          "internalType": "bytes32",
          "name": "",
          "type": "bytes32"
        },
        {
          "internalType": "uint256",
          "name": "",
          "type": "uint256"
        }
      ],
      "name": "isDisputed",
      "outputs": [
        {
          "internalType": "bool",
          "name": "",
          "type": "bool"
        }
      ],
      "stateMutability": "view",
      "type": "function"
    },
    {
      "inputs": [
        {
          "internalType": "bytes32",
          "name": "_queryId",
          "type": "bytes32"
        },
        {
          "internalType": "uint256",
          "name": "_timestamp",
          "type": "uint256"
        }
      ],
      "name": "isInDispute",
      "outputs": [
        {
          "internalType": "bool",
          "name": "",
          "type": "bool"
        }
      ],
      "stateMutability": "view",
      "type": "function"
    },
    {
      "inputs": [],
      "name": "name",
      "outputs": [
        {
          "internalType": "string",
          "name": "",
          "type": "string"
        }
      ],
      "stateMutability": "view",
      "type": "function"
    },
    {
      "inputs": [
        {
          "internalType": "uint256",
          "name": "_amount",
          "type": "uint256"
        }
      ],
      "name": "requestStakingWithdraw",
      "outputs": [],
      "stateMutability": "nonpayable",
      "type": "function"
    },
    {
      "inputs": [
        {
          "internalType": "bytes32",
          "name": "_queryId",
          "type": "bytes32"
        },
        {
          "internalType": "uint256",
          "name": "_timestamp",
          "type": "uint256"
        }
      ],
      "name": "retrieveData",
      "outputs": [
        {
          "internalType": "bytes",
          "name": "",
          "type": "bytes"
        }
      ],
      "stateMutability": "view",
      "type": "function"
    },
    {
      "inputs": [
        {
          "internalType": "bytes32",
          "name": "",
          "type": "bytes32"
        },
        {
          "internalType": "uint256",
          "name": "",
          "type": "uint256"
        }
      ],
      "name": "shouterByTimestamp",
      "outputs": [
        {
          "internalType": "address",
          "name": "",
          "type": "address"
        }
      ],
      "stateMutability": "view",
      "type": "function"
    },
    {
      "inputs": [],
      "name": "stakeAmount",
      "outputs": [
        {
          "internalType": "uint256",
          "name": "",
          "type": "uint256"
        }
      ],
      "stateMutability": "view",
      "type": "function"
    },
    {
      "inputs": [
        {
          "internalType": "bytes32",
          "name": "_queryId",
          "type": "bytes32"
        },
        {
          "internalType": "bytes",
          "name": "_value",
          "type": "bytes"
        },
        {
          "internalType": "uint256",
          "name": "_nonce",
          "type": "uint256"
        },
        {
          "internalType": "bytes",
          "name": "_queryData",
          "type": "bytes"
        }
      ],
      "name": "submitValue",
      "outputs": [],
      "stateMutability": "nonpayable",
      "type": "function"
    },
    {
      "inputs": [],
      "name": "symbol",
      "outputs": [
        {
          "internalType": "string",
          "name": "",
          "type": "string"
        }
      ],
      "stateMutability": "view",
      "type": "function"
    },
    {
      "inputs": [],
      "name": "timeBasedReward",
      "outputs": [
        {
          "internalType": "uint256",
          "name": "",
          "type": "uint256"
        }
      ],
      "stateMutability": "view",
      "type": "function"
    },
    {
      "inputs": [
        {
          "internalType": "bytes32",
          "name": "",
          "type": "bytes32"
        },
        {
          "internalType": "uint256",
          "name": "",
          "type": "uint256"
        }
      ],
      "name": "timestamps",
      "outputs": [
        {
          "internalType": "uint256",
          "name": "",
          "type": "uint256"
        }
      ],
      "stateMutability": "view",
      "type": "function"
    },
    {
      "inputs": [
        {
          "internalType": "bytes32",
          "name": "",
          "type": "bytes32"
        }
      ],
      "name": "tips",
      "outputs": [
        {
          "internalType": "uint256",
          "name": "",
          "type": "uint256"
        }
      ],
      "stateMutability": "view",
      "type": "function"
    },
    {
      "inputs": [],
      "name": "tipsInContract",
      "outputs": [
        {
          "internalType": "uint256",
          "name": "",
          "type": "uint256"
        }
      ],
      "stateMutability": "view",
      "type": "function"
    },
    {
      "inputs": [],
      "name": "token",
      "outputs": [
        {
          "internalType": "address",
          "name": "",
          "type": "address"
        }
      ],
      "stateMutability": "view",
      "type": "function"
    },
    {
      "inputs": [],
      "name": "totalSupply",
      "outputs": [
        {
          "internalType": "uint256",
          "name": "",
          "type": "uint256"
        }
      ],
      "stateMutability": "view",
      "type": "function"
    },
    {
      "inputs": [
        {
          "internalType": "address",
          "name": "_recipient",
          "type": "address"
        },
        {
          "internalType": "uint256",
          "name": "_amount",
          "type": "uint256"
        }
      ],
      "name": "transfer",
      "outputs": [
        {
          "internalType": "bool",
          "name": "",
          "type": "bool"
        }
      ],
      "stateMutability": "nonpayable",
      "type": "function"
    },
    {
      "inputs": [
        {
          "internalType": "address",
          "name": "_sender",
          "type": "address"
        },
        {
          "internalType": "address",
          "name": "_recipient",
          "type": "address"
        },
        {
          "internalType": "uint256",
          "name": "_amount",
          "type": "uint256"
        }
      ],
      "name": "transferFrom",
      "outputs": [
        {
          "internalType": "bool",
          "name": "",
          "type": "bool"
        }
      ],
      "stateMutability": "nonpayable",
      "type": "function"
    },
    {
      "inputs": [
        {
          "internalType": "bytes32",
          "name": "",
          "type": "bytes32"
        },
        {
          "internalType": "uint256",
          "name": "",
          "type": "uint256"
        }
      ],
      "name": "values",
      "outputs": [
        {
          "internalType": "bytes",
          "name": "",
          "type": "bytes"
        }
      ],
      "stateMutability": "view",
      "type": "function"
    },
    {
      "inputs": [],
      "name": "voteCount",
      "outputs": [
        {
          "internalType": "uint256",
          "name": "",
          "type": "uint256"
        }
      ],
      "stateMutability": "view",
      "type": "function"
    },
    {
      "inputs": [
        {
          "internalType": "bytes32",
          "name": "",
          "type": "bytes32"
        },
        {
          "internalType": "uint256",
          "name": "",
          "type": "uint256"
        }
      ],
      "name": "voteRounds",
      "outputs": [
        {
          "internalType": "uint256",
          "name": "",
          "type": "uint256"
        }
      ],
      "stateMutability": "view",
      "type": "function"
    },
    {
      "inputs": [],
      "name": "withdrawStake",
      "outputs": [],
      "stateMutability": "nonpayable",
      "type": "function"
    }
  ],
  "bytecode": "0x60806040523480156200001157600080fd5b5060408051808201909152600d81526c546865566f6964556e7361666560981b6020820152600e906200004590826200013b565b506040805180820190915260048152634543484f60e01b6020820152600f906200007090826200013b565b506010805460ff19166012179055600c80546001600160a01b0319163017905562000207565b634e487b7160e01b600052604160045260246000fd5b600181811c90821680620000c157607f821691505b602082108103620000e257634e487b7160e01b600052602260045260246000fd5b50919050565b601f8211156200013657600081815260208120601f850160051c81016020861015620001115750805b601f850160051c820191505b8181101562000132578281556001016200011d565b5050505b505050565b81516001600160401b0381111562000157576200015762000096565b6200016f81620001688454620000ac565b84620000e8565b602080601f831160018114620001a757600084156200018e5750858301515b600019600386901b1c1916600185901b17855562000132565b600085815260208120601f198616915b82811015620001d857888601518255948401946001909101908401620001b7565b5085821015620001f75787850151600019600388901b60f8161c191681555b5050505050600190811b01905550565b611e2380620002176000396000f3fe608060405234801561001057600080fd5b50600436106102325760003560e01c806377b03e0d11610130578063c5958af9116100b8578063d9c51cd41161007c578063d9c51cd414610566578063dd62ed3e14610579578063f25133f3146105b2578063f336ab91146105c5578063fc0c546a1461065a57600080fd5b8063c5958af914610511578063c638407114610524578063c979fe9f1461052d578063cb82cc8f14610540578063ce5e11bf1461055357600080fd5b806396426d97116100ff57806396426d97146104b2578063a792765f146104c1578063a9059cbb146104e3578063b86d1d63146104f6578063bed9d8611461050957600080fd5b806377b03e0d146104435780637c8a9cb9146104635780638929f4c61461049757806395d89b41146104aa57600080fd5b8063313ce567116101be57806360c7dc471161018257806360c7dc47146103d557806364473df2146103de57806369d43bd31461040957806370a0823114610412578063722580b61461043b57600080fd5b8063313ce5671461035b57806344e87f91146103705780635aa6e6751461039c5780635eaa9ced146103a2578063602bf227146103b557600080fd5b80631a7a685d116102055780631a7a685d1461029d5780631f379acc146102e957806323b872dd146102fe578063248638e514610311578063294490851461033157600080fd5b806306fdde0314610237578063091b50ff14610255578063095ea7b31461026857806318160ddd1461028b575b600080fd5b61023f61066d565b60405161024c91906117e0565b60405180910390f35b61023f6102633660046117fa565b6106ff565b61027b610276366004611838565b6107a4565b604051901515815260200161024c565b600d545b60405190815260200161024c565b6102d16102ab3660046117fa565b60016020908152600092835260408084209091529082529020546001600160a01b031681565b6040516001600160a01b03909116815260200161024c565b6102fc6102f73660046117fa565b6107bb565b005b61027b61030c366004611862565b610880565b61032461031f36600461189e565b6108d2565b60405161024c91906118b7565b61034461033f3660046117fa565b610934565b60408051921515835260208301919091520161024c565b60105460405160ff909116815260200161024c565b61027b61037e3660046117fa565b60009182526020828152604080842092845291905290205460ff1690565b306102d1565b6102fc6103b036600461199e565b610c5d565b61028f6103c336600461189e565b60046020526000908152604090205481565b61028f60095481565b61027b6103ec3660046117fa565b600060208181529281526040808220909352908152205460ff1681565b61028f600a5481565b61028f610420366004611a49565b6001600160a01b031660009081526008602052604090205490565b60095461028f565b61028f61045136600461189e565b60009081526003602052604090205490565b6102d16104713660046117fa565b60009182526001602090815260408084209284529190529020546001600160a01b031690565b6102fc6104a536600461189e565b610e89565b61023f610f64565b61028f6706f05b59d3b2000081565b6104d46104cf3660046117fa565b610f73565b60405161024c93929190611a64565b61027b6104f1366004611838565b611070565b6102fc610504366004611a49565b61107d565b6102fc611093565b61023f61051f3660046117fa565b6111a0565b61028f600b5481565b61028f61053b3660046117fa565b61124e565b6102fc61054e36600461189e565b61127f565b61028f6105613660046117fa565b61135c565b6102fc61057436600461189e565b6113bb565b61028f610587366004611a8f565b6001600160a01b03918216600090815260076020908152604080832093909416825291909152205490565b61028f6105c03660046117fa565b6113cf565b6106146105d3366004611a49565b6001600160a01b0316600090815260026020819052604082208054600182015492820154600383015460049093015491959394909390929190839081908190565b60408051998a5260208a0198909852968801959095526060870193909352608086019190915260a085015260c084015260e083015215156101008201526101200161024c565b600c546102d1906001600160a01b031681565b6060600e805461067c90611ac2565b80601f01602080910402602001604051908101604052809291908181526020018280546106a890611ac2565b80156106f55780601f106106ca576101008083540402835291602001916106f5565b820191906000526020600020905b8154815290600101906020018083116106d857829003601f168201915b5050505050905090565b60056020908152600092835260408084209091529082529020805461072390611ac2565b80601f016020809104026020016040519081016040528092919081815260200182805461074f90611ac2565b801561079c5780601f106107715761010080835404028352916020019161079c565b820191906000526020600020905b81548152906001019060200180831161077f57829003601f168201915b505050505081565b60006107b13384846113eb565b5060015b92915050565b604080516020808201835260008083528581526005825283812085825290915291909120906107ea9082611b4b565b506000828152602081815260408083208484529091528120805460ff19166001179055600b80549161081b83611c21565b9190505550600660008383604051602001610840929190918252602082015260400190565b60408051601f19818403018152918152815160209283012083528282019390935291016000908120600b5481546001810183559183529290912001555050565b600061088d848484611510565b6001600160a01b0384166000908152600760209081526040808320338085529252909120546108c89186916108c3908690611c3a565b6113eb565b5060019392505050565b60008181526006602090815260409182902080548351818402810184019094528084526060939283018282801561092857602002820191906000526020600020905b815481526020019060010190808311610914575b50505050509050919050565b60008281526003602052604081205481908015610c4d576000808061095a600185611c3a565b90506000610968898461135c565b905087811061098257600080965096505050505050610c56565b61098c898361135c565b905087811015610a2c575b60008981526020818152604080832084845290915290205460ff1680156109be5750600082115b156109e157816109cd81611c4d565b9250506109da898361135c565b9050610997565b81158015610a06575060008981526020818152604080832084845290915290205460ff165b15610a1c57600080965096505050505050610c56565b50600195509350610c5692505050565b826002610a398285611c3a565b610a439190611c64565b610a4e906001611c86565b610a589190611c86565b9350610a64898561135c565b905087811015610b64576000610a7f8a610561876001611c86565b9050888110610b515760008a81526020818152604080832085845290915290205460ff16610ab95760018597509750505050505050610c56565b60008a81526020818152604080832085845290915290205460ff168015610ae05750600085115b15610b035784610aef81611c4d565b955050610afc8a8661135c565b9150610ab9565b84158015610b28575060008a81526020818152604080832085845290915290205460ff165b15610b3f5760008097509750505050505050610c56565b60018597509750505050505050610c56565b610b5c856001611c86565b935050610a2c565b6000610b758a610561600188611c3a565b905088811015610c3a5760008a81526020818152604080832084845290915290205460ff16610bb9576001610baa8187611c3a565b97509750505050505050610c56565b84610bc381611c4d565b9550505b60008a81526020818152604080832084845290915290205460ff168015610bee5750600085115b15610c115784610bfd81611c4d565b955050610c0a8a8661135c565b9050610bc7565b84158015610b28575060008a81526020818152604080832084845290915290205460ff16610b28565b610c45600186611c3a565b925050610a2c565b60008092509250505b9250929050565b7fc5d2460186f7233c927e7db2dcc703c0e500b653ca82273b7bfad8045d85a4708484604051610c8e929190611c99565b604051809103902003610ce85760405162461bcd60e51b815260206004820152601760248201527f76616c7565206d757374206265207375626d697474656400000000000000000060448201526064015b60405180910390fd5b600085815260036020526040902054821480610d02575081155b610d4e5760405162461bcd60e51b815260206004820181905260248201527f6e6f6e6365206d757374206d617463682074696d657374616d7020696e6465786044820152606401610cdf565b80516020820120851480610d63575060648511155b610daf5760405162461bcd60e51b815260206004820152601d60248201527f6964206d7573742062652068617368206f6620627974657320646174610000006044820152606401610cdf565b60008581526005602090815260408083204284529091529020610dd3848683611ca9565b5060008581526003602081815260408084208054600181810183559186528386204291018190558a8652908352818520818652835281852080546001600160a01b0319163390811790915585526002909252832091820155600401805491610e3a83611c21565b91905055507f3538bcce91886d25bc33ca28d757e980dec5487690c325f0f396c795a32bc1a785428686868633604051610e7a9796959493929190611d6a565b60405180910390a15050505050565b3360009081526002602052604090206001810154821115610eec5760405162461bcd60e51b815260206004820152601b60248201527f696e73756666696369656e74207374616b65642062616c616e636500000000006044820152606401610cdf565b428155600281018054839190600090610f06908490611c86565b9250508190555081816001016000828254610f219190611c3a565b909155505060408051338152602081018490527f3d8d9df4bd0172df32e557fa48e96435cd7f2cac06aaffacfaee608e6f7898ef91015b60405180910390a15050565b6060600f805461067c90611ac2565b600060606000806000610f868787610934565b9150915081610fb05760006040518060200160405280600081525060009450945094505050611069565b610fba878261135c565b60008881526005602090815260408083208484529091529020805491945090610fe290611ac2565b80601f016020809104026020016040519081016040528092919081815260200182805461100e90611ac2565b801561105b5780601f106110305761010080835404028352916020019161105b565b820191906000526020600020905b81548152906001019060200180831161103e57829003601f168201915b505050505093506001945050505b9250925092565b60006107b1338484611510565b61109081683635c9adc5dea00000611677565b50565b336000908152600260205260409020805462093a80906110b39042611c3a565b10156110f65760405162461bcd60e51b8152602060048201526012602482015271372064617973206469646e2774207061737360701b6044820152606401610cdf565b60008160020154116111545760405162461bcd60e51b815260206004820152602160248201527f73686f75746572206e6f74206c6f636b656420666f72207769746864726177616044820152601b60fa1b6064820152608401610cdf565b61116330338360020154611510565b600060028201556040513381527f4a7934670bd8304e7da22378be1368f7c4fef17c5aee81804beda8638fe428ec9060200160405180910390a150565b600082815260056020908152604080832084845290915290208054606091906111c890611ac2565b80601f01602080910402602001604051908101604052809291908181526020018280546111f490611ac2565b80156112415780601f1061121657610100808354040283529160200191611241565b820191906000526020600020905b81548152906001019060200180831161122457829003601f168201915b5050505050905092915050565b6006602052816000526040600020818154811061126a57600080fd5b90600052602060002001600091509150505481565b33600090815260026020819052604090912090810154156112f357818160020154106112c457818160020160008282546112b99190611c3a565b909155506113079050565b6112de33308360020154856112d99190611c3a565b611756565b6112e757600080fd5b60006002820155611307565b6112fe333084611756565b61130757600080fd5b428155600181018054839190600090611321908490611c86565b909155505060408051338152602081018490527f97566f106d9dba52fe9bba935bb35278ef8ed2f4377aaefc3d77465619463bb39101610f58565b6000828152600360205260408120548015806113785750828111155b156113875760009150506107b5565b60008481526003602052604090208054849081106113a7576113a7611dd7565b906000526020600020015491505092915050565b6113c6333083611756565b61109057600080fd5b6003602052816000526040600020818154811061126a57600080fd5b6001600160a01b03831661144d5760405162461bcd60e51b8152602060048201526024808201527f45524332303a20617070726f76652066726f6d20746865207a65726f206164646044820152637265737360e01b6064820152608401610cdf565b6001600160a01b0382166114ae5760405162461bcd60e51b815260206004820152602260248201527f45524332303a20617070726f766520746f20746865207a65726f206164647265604482015261737360f01b6064820152608401610cdf565b6001600160a01b0383811660008181526007602090815260408083209487168084529482529182902085905590518481527f8c5be1e5ebec7d5bd14f71427d1e84f3dd0314c0f7b2291e5b200ac8c7c3b92591015b60405180910390a3505050565b6001600160a01b0383166115745760405162461bcd60e51b815260206004820152602560248201527f45524332303a207472616e736665722066726f6d20746865207a65726f206164604482015264647265737360d81b6064820152608401610cdf565b6001600160a01b0382166115d65760405162461bcd60e51b815260206004820152602360248201527f45524332303a207472616e7366657220746f20746865207a65726f206164647260448201526265737360e81b6064820152608401610cdf565b6001600160a01b038316600090815260086020526040812080548392906115fe908490611c3a565b90915550506001600160a01b0382166000908152600860205260408120805483929061162b908490611c86565b92505081905550816001600160a01b0316836001600160a01b03167fddf252ad1be2c89b69c2b068fc378daa952ba7f163c4a11628f55a4df523b3ef8360405161150391815260200190565b6001600160a01b0382166116cd5760405162461bcd60e51b815260206004820152601f60248201527f45524332303a206d696e7420746f20746865207a65726f2061646472657373006044820152606401610cdf565b80600d60008282546116df9190611c86565b90915550506001600160a01b0382166000908152600860205260408120805483929061170c908490611c86565b90915550506040518181526001600160a01b038316906000907fddf252ad1be2c89b69c2b068fc378daa952ba7f163c4a11628f55a4df523b3ef9060200160405180910390a35050565b6000611763848484611510565b6001600160a01b03841660009081526007602090815260408083203084529091529020546108c890859033906108c3908690611c3a565b6000815180845260005b818110156117c0576020818501810151868301820152016117a4565b506000602082860101526020601f19601f83011685010191505092915050565b6020815260006117f3602083018461179a565b9392505050565b6000806040838503121561180d57600080fd5b50508035926020909101359150565b80356001600160a01b038116811461183357600080fd5b919050565b6000806040838503121561184b57600080fd5b6118548361181c565b946020939093013593505050565b60008060006060848603121561187757600080fd5b6118808461181c565b925061188e6020850161181c565b9150604084013590509250925092565b6000602082840312156118b057600080fd5b5035919050565b6020808252825182820181905260009190848201906040850190845b818110156118ef578351835292840192918401916001016118d3565b50909695505050505050565b634e487b7160e01b600052604160045260246000fd5b600082601f83011261192257600080fd5b813567ffffffffffffffff8082111561193d5761193d6118fb565b604051601f8301601f19908116603f01168101908282118183101715611965576119656118fb565b8160405283815286602085880101111561197e57600080fd5b836020870160208301376000602085830101528094505050505092915050565b6000806000806000608086880312156119b657600080fd5b85359450602086013567ffffffffffffffff808211156119d557600080fd5b818801915088601f8301126119e957600080fd5b8135818111156119f857600080fd5b896020828501011115611a0a57600080fd5b60208301965080955050604088013593506060880135915080821115611a2f57600080fd5b50611a3c88828901611911565b9150509295509295909350565b600060208284031215611a5b57600080fd5b6117f38261181c565b8315158152606060208201526000611a7f606083018561179a565b9050826040830152949350505050565b60008060408385031215611aa257600080fd5b611aab8361181c565b9150611ab96020840161181c565b90509250929050565b600181811c90821680611ad657607f821691505b602082108103611af657634e487b7160e01b600052602260045260246000fd5b50919050565b601f821115611b4657600081815260208120601f850160051c81016020861015611b235750805b601f850160051c820191505b81811015611b4257828155600101611b2f565b5050505b505050565b815167ffffffffffffffff811115611b6557611b656118fb565b611b7981611b738454611ac2565b84611afc565b602080601f831160018114611bae5760008415611b965750858301515b600019600386901b1c1916600185901b178555611b42565b600085815260208120601f198616915b82811015611bdd57888601518255948401946001909101908401611bbe565b5085821015611bfb5787850151600019600388901b60f8161c191681555b5050505050600190811b01905550565b634e487b7160e01b600052601160045260246000fd5b600060018201611c3357611c33611c0b565b5060010190565b818103818111156107b5576107b5611c0b565b600081611c5c57611c5c611c0b565b506000190190565b600082611c8157634e487b7160e01b600052601260045260246000fd5b500490565b808201808211156107b5576107b5611c0b565b8183823760009101908152919050565b67ffffffffffffffff831115611cc157611cc16118fb565b611cd583611ccf8354611ac2565b83611afc565b6000601f841160018114611d095760008515611cf15750838201355b600019600387901b1c1916600186901b178355611d63565b600083815260209020601f19861690835b82811015611d3a5786850135825560209485019460019092019101611d1a565b5086821015611d575760001960f88860031b161c19848701351681555b505060018560011b0183555b5050505050565b87815286602082015260c060408201528460c0820152848660e0830137600060e086830101526000601f19601f870116820185606084015260e0838203016080840152611dba60e082018661179a565b91505060018060a01b03831660a083015298975050505050505050565b634e487b7160e01b600052603260045260246000fdfea2646970667358221220d8691892ff7379ad51ead174894c3724529db40b8c6ea1e236035dd176df728264736f6c63430008130033",
  "linkReferences": {},
  "deployedLinkReferences": {}
}